:030000000210905B
:0C109000787FE4F6D8FD7581640210D76B
:10139F004E41434B0A004D533A0044533A004F3AE3
:1013AF0000533A00473A0041434B0A00252D33754D
:1013BF000030003100252D317500726573706F6E2E
:0813CF007365203A202573002C
:03155700014B0144
:03000300021533B0
:0D153300C0E0055CE55C7002055BD0E032B5
:03000B000212647A
:10126400C0E0C0F0C083C082C0D075D000C000C050
:1012740001C002C003C004C005C006C007054EE596
:101284004E7002054DAE5BAF5CE4FCFD7B2E7AF83C
:10129400F9F8C3120D1C500C755B00755C01754D9B
:1012A40000754E01D007D006D005D004D003D0027B
:0F12B400D001D000D0D0D082D083D0F0D0E032A3
:030013000214359F
:10143500C0E0C0F0C083C082C0D075D0081211953D
:10144500C280C281C282C283854B4CC28BD0D0D0B0
:0814550082D083D0F0D0E03218
:03002300021201C5
:10120100C0E0C0D075D0103098543097028017AF2D
:101211005D7E00EF701DE599B473028005E599B418
:101221007504744F801A7562FF75631375649FD2DC
:101231000B8029D3EF9404EE64809480744F50099D
:10124100255DF8A699055D8013255DF8A699755D64
:1012510000755F0075600075614FD209C298D0D0EA
:03126100D0E032A8
:03155B00C2AF22FA
:03155E00D2AF22E7
:081407008E2F8F30AB05AA0403
:10140F007F017E00E530452F70021F22D3EB940041
:10141F00EA64809480400EAC2FAD30120C7FEB1B32
:05142F0070EA1A80E7DD
:011434002295
:100FDB00121515C20BC209C20AE4F55DF55BF55C8F
:100FEB00F54D754E01F555F556C280C281C282C2D0
:100FFB0083C290D291759850438921758DFED28E04
:10100B00D299D294754C09F5487549FF85484685A8
:10101B004947854C4A12155ED2ACD2AAD2A8D2A9A6
:10102B00D288D28A758C48758A14D28C121540D20C
:10103B0000C2011214A3D200C201C202121484E432
:10104B00FF1213167BFF7A1379A51213D77F401269
:10105B0013167BFF7A1379A91213D77F4D12131630
:10106B007BFF7A1379AD1213D77F081213167BFF10
:10107B007A1379B01213D77F481213167BFF7A13AA
:05108B0079B30213D748
:1014C00075A0FFC295D295C2B52096FDC294AFA07B
:0814D0007548008F49D29422F7
:100D9300E4F523F524F525F526F527F52812155B4B
:100DA30078297C00FDAB5FAA60A961FE7F06120C67
:100DB3002C12155EE4F522AF22EF3395E0FEC3EF6C
:100DC3009405EE64809480501874292FF8E6FF335D
:100DD30095E0FEEF2528F528EE3527F52705228037
:100DE300D6AE27AF287C007D0A120CE6AF2EEF3378
:100DF30095E0FEEF24D0FFEE34FFFEED6F7002ECC2
:100E03006E60028049E529B4731C12155B854C4A58
:100E13008548468549477562FF7563137564B6D285
:100E23000BC20A020F11AF2AEF3395E0FEC3EF9412
:100E33003AEE648094805016EF942FEE6480948091
:100E4300400CEF24D0F526EE34FFF5258011121562
:100E53005B7562FF75631375649FD20B020F117587
:100E63002202AF22EF3395E0FEC3EF9405EE6480D8
:100E73009480506474292522F8E6FD3395E0FCC381
:100E8300ED943AEC64809480503AED942FEC6480B6
:100E93009480403074049FFDE49EFC7F0A7E001220
:100EA300140774292522F8E6FD3395E0FCED24D0E0
:100EB300FDEC34FFFC120C7FEF2524F524EE3523E3
:100EC300F523801012155B7562FF75631375649FBC
:100ED300D20B803A0522808AD3E52494FFE523646C
:100EE300809480401012155B7562FF7563137564FF
:100EF3009FD20B801912155B8523468524478526CF
:100F03004A7562FF7563137564B6D20BD20A121564
:010F13005E7F
:010F140022BA
:10111C0012155BAC4DAD4EAE5BAF5C120C917C000E
:10112C007D72120C7F7D64120C918E558F56309708
:10113C0002801C300A19AE46AF477C007D0A120CA7
:10114C007F7D17120C918E578F58854A5E8017AE93
:10115C0048AF497C007D0A120C7F7D17120C918ED2
:10116C00578F58854C5EAF5E7E00AC57AD58120C55
:10117C007F8E598F5A12155EC3E556955AE55595D3
:09118C00595003D29122C29122B4
:100F150012155E7F031213167535FF753613753777
:100F2500BB8555388556397B007A00792212085CD5
:100F35007B007A0079221213D77F43121316753579
:100F4500FF7536137537BB855938855A397B007A55
:100F550000792212085C7B007A0079221213D77F70
:100F65004F12131630970B7BFF7A1379C01213D7E4
:100F7500801812155B7BFF300A067A1379C280044C
:100F85007A1379C01213D712155E7F0A12131675DC
:100F950035FF7536137537BB8557388558397B004E
:100FA5007A00792212085C7B007A0079221213D725
:100FB5007F4A1213167535FF7536137537C47538A4
:100FC50000855E397B007A00792212085C7B007A05
:060FD5000079220213D78F
:10136200120FDB300B148562358563368564377B5B
:10137200FF7A1379C9120862C20BC2B41214C0D226
:10138200B4300909C2B6120D93C209D2B6C2B7125D
:0D139200111CD2B7C2B5120F15D2B580C61E
:10119500C280D281D282D283308460208504754B8F
:1011A5003022308656D280C281D282D283208404F6
:1011B500754B0922208504754B0822208604754B42
:1011C5000722D280D281C282D283208404754B0645
:1011D50022208504754B0522208604754B0422D2F6
:1011E50080D281D282C283208404754B032220855C
:0C11F50004754B0222208603754B01227A
:0615510020202000200014
:1014D8007BFF7A1579511213D71214ED7BFF7A1519
:0514E80079550213D745
:06154B001213D70214ED9B
:10150200121515D200C2011214A3D200C201C202E6
:031512000214843C
:1014ED00C293C2A7C2A6C2A5C2A4D292C292D2A5CD
:0514FD00D292C2922210
:1014A300C293C2A7C2A6C2A5C2A4D292C292D2A616
:0D14B300A20092A5A20192A4D292C29222A0
:10148400C2A7C2A6C2A5C2A4D292C292D2A7A200E7
:0F14940092A6A20192A5A20292A4D292C2922283
:0F151500C2A7C2A6D2A5C2A4C293D292C29222EA
:0B154000D292C292D2A7D292C2922295
:101316008F32C293D2A77D0612152492A67D05AF01
:101326003212152492A57D04AF3212152492A4D24E
:1013360092C2927D03AF3212152492A77D02AF327C
:1013460012152492A67D01AF3212152492A5E4FD52
:0C135600AF3212152492A4D292C292224F
:1012C3008F377D0712152492A77D06AF3712152499
:1012D30092A67D05AF3712152492A57D04AF371270
:1012E300152492A4D293D292C2927D03AF371215E2
:1012F3002492A77D02AF3712152492A67D01AF3742
:1013030012152492A5E4FDAF3712152492A4D292AC
:03131300C2922261
:0613D7008B328A338934D9
:1013DD00E4F535F536AB32AA33A934853682853539
:1013ED0083120C52FFFD3395E04D600D1212C305B3
:0913FD0036E53670E0053580DCB0
:0114060022C3
:0F152400AE05A806EF088003A2E713D8FB132239
:10109C00021362E493A3F8E493A34003F68001F2F5
:1010AC0008DFF48029E493A3F85407240CC8C33355
:1010BC00C4540F4420C8834004F456800146F6DF24
:1010CC00E4800B0102040810204080901557E47E48
:1010DC00019360BCA3FF543F30E509541FFEE49319
:1010EC00A360010ECF54C025E060A840B8E493A3E0
:1010FC00FAE493A3F8E493A3C8C582C8CAC583CA0B
:10110C00F0A3C8C582C8CAC583CADFE9DEE780BEC2
:01155A000090
:100B5C00E709F608DFFA8046E709F208DFFA803E7B
:100B6C0088828C83E709F0A3DFFA8032E309F60868
:100B7C00DFFA8078E309F208DFFA807088828C83D0
:100B8C00E309F0A3DFFA806489828A83E0A3F60884
:100B9C00DFFA805889828A83E0A3F208DFFA804C5E
:100BAC0080D280FA80C680D4806980F28033801035
:100BBC0080A680EA809A80A880DA80E280CA80339E
:100BCC0089828A83ECFAE493A3C8C582C8CCC58316
:100BDC00CCF0A3C8C582C8CCC583CCDFE9DEE780E6
:100BEC000D89828A83E493A3F608DFF9ECFAA9F065
:100BFC00EDFB2289828A83ECFAE0A3C8C582C8CCBB
:100C0C00C583CCF0A3C8C582C8CCC583CCDFEADED3
:100C1C00E880DB89828A83E493A3F208DFF980CC35
:100C2C0088F0EF60010E4E60C388F0ED2402B4042E
:100C3C000050B9F582EB2402B4040050AF232345D5
:060C4C008223900BAC7343
:100C5200BB010CE58229F582E5833AF583E0225057
:100C620006E92582F8E622BBFE06E92582F8E222A1
:0D0C7200E58229F582E5833AF583E49322BB
:100C7F00EF8DF0A4A8F0CF8CF0A428CE8DF0A42E89
:020C8F00FE2243
:100C9100BC000BBE0029EF8DF084FFADF022E4CC47
:100CA100F875F008EF2FFFEE33FEEC33FCEE9DEC10
:100CB100984005FCEE9DFE0FD5F0E9E4CEFD22ED56
:100CC100F8F5F0EE8420D21CFEADF075F008EF2FA0
:100CD100FFED33FD4007985006D5F0F222C398FD91
:050CE1000FD5F0EA222E
:100CE600C2D5EC30E709B2D5E4C39DFDE49CFCEE29
:100CF60030E715B2D5E4C39FFFE49EFE120C91C304
:100D0600E49DFDE49CFC8003120C9130D507C3E4FE
:060D16009FFFE49EFE2297
:100D1C00EB9FF5F0EA9E42F0E99D42F0EC6480C84E
:060D2C0064809845F022EE
:10080000E5412435F8E60541227832300702783593
:10081000E475F001120D5D020D322000EB7F2ED247
:10082000008018EF540F2490D43440D4FF30040BD0
:10083000EF24BFB41A0050032461FFE542600215A3
:10084000420545E5457002054430070D7832E475F0
:10085000F001120D5DEF020D4B02145D7403D2071F
:100860008003E4C207F5418B328A338934E4F542D0
:10087000F544F545E54260077F2012083B80F57599
:1008800043FFC201C200C202C203C205C206C208BF
:10089000120809FF700D3007057F0012084CAF45A4
:1008A000AE4422B4255FC2D5C204120809FF24D089
:1008B000B40A00501A75F00A784230D50508B6FF20
:1008C0000106C6A426F620D5047002D20380D924DE
:1008D000CFB41A00EF5004C2E5D204020A4CD20190
:1008E00080C6D20080C0D20280BCD2D580BAD205E8
:1008F00080B47F2012083B2002077401B5420040FB
:10090000F1120800FF12083B020874D208D20680D8
:1009100095120800FB120800FA120800F94A4B7001
:1009200006791D7A0B7BFF20022EE542602A7E00AD
:100930008E82758300120C5260060EEE654370F0D5
:10094000C2D5EBC0E0EAC0E0E9C0E0EE120A93D005
:10095000E0F9D0E0FAD0E0FB120D32FF60AAEBC064
:10096000E0EAC0E0E9C0E012083BD0E02401F9D0A1
:10097000E03400FAD0E0FBE5430460DCD543D980E5
:10098000877BFF7A0A798FD202809C791080027966
:1009900008C206C2088008D2D5790A8004790AC242
:1009A000D5E543047002F543E4FAFDFEFF120800AA
:1009B000FC7B08200113120800FD7B1030000A1296
:1009C0000800FE120800FF7B20EC3382D592D55040
:1009D00013C3E43000069FFFE49EFEE42001039D64
:1009E000FDE49CFCE4CBF8C201EC700CCFCECDCC86
:1009F000E824F8F870F38017C3EF33FFEE33FEED11
:100A000033FDEC33FCEB33FB994002FB0FD8E9EBF1
:100A1000300105F8D0E0C448B201C0E00AEC4D4E08
:100A20004F78207B0070C2EAB5430040BCC0E012A2
:100A30000A95D0F0D0E0200104C4C0E0C4B201C0E7
:100A4000F0120824D0F0D5F0EB020874120D6D09F5
:100A50001153098B5808E24C08DE42098F4F099761
:0F0A60004409974908F743099D550981460981C3
:100A6F00450981470B3D5008E62D08EA2E090D2B4D
:100A7F0008EE23090B200B262A08A64800000905BB
:100A8F003F3F3F00790AA2D5200314300509B91062
:100A9F00020404B9080104A2D52006025001042063
:100AAF0002689202B542005034C0E07F2030031933
:100ABF007F30A20272067205500F120AECC202C2F8
:100ACF0006C205C2087F30800F300503E9C0E0126F
:100ADF00083B300503D0E0F9D0E0B542CC30051724
:100AEF007F30B9100C12083B7F583004077F788095
:100AFF0003B9080312083B3002057F2D02083B7F24
:100B0F00202008F87F2B2006F322920280CF286E38
:100B1F00756C6C2900D2011208003001F8C20178FF
:100B2F004230D50108F60208A62D50434958120845
:100B3F00002403B405004001E4900B389312082CF5
:0D0B4F00743A12082CD20375420402098B7F
:100D3200BB010689828A83E0225002E722BBFE02BF
:090D4200E32289828A83E49322F2
:100D4B00BB010689828A83F0225002F722BBFE0187
:020D5B00F32281
:100D5D00FAE6FB0808E6F925F0F618E6CA3AF62297
:100D6D00D083D082F8E4937012740193700DA3A315
:100D7D0093F8740193F5828883E473740293686029
:060D8D00EFA3A3A380DF29
:10145D00EFB40A07740D121468740A309811A89924
:10146D00B8130CC2983098FDA899C298B811F630EF
:07147D0099FDC299F59922C7
:00000001FF
